:020000040000FA
:04000000C1EF35F027
:066AA600000E3C6E120020
:106AAD00FFFF0F00050019016E01C083FF120001E9
:106ABD006E01C03EF0120001C035F002C036F0127A
:106ACD0000000E3F6E3FC081FF120001500302F324
:106ADD00CF05F0F4CF06F001500402F35006260264
:106AED00500302F350062605C001F006C002F01255
:106AFD0000076E848207505AEC35F08494000E0224
:106B0D006E030E016EF5EC36F08492000E026E03EC
:106B1D000E016EF5EC36F084821200076E8482074A
:106B2D00505AEC35F08484000E026E030E016EF5A2
:106B3D00EC36F08492000E026E030E016EF5EC360B
:106B4D00F084821200016E0150D8A4B0EF35F0B27E
:106B5D00EF35F0B6EF35F0000E3D6EC0EF35F03C81
:106B6D0050D8B4BCEF35F0BEEF35F0C0EF35F001C5
:106B7D000E3D6E1200AD0EF66E6A0EF76E000EF83B
:106B8D006E00EE35F010EE07F00900F5CFEEFFE5E3
:106B9D0050E150FAE13F6A3E6A3D6A3C6A000EF8E8
:106BAD006E0001E9EF38F03C50D8A4E0EF35F0E28B
:106BBD00EF35F0F0EF35F03550011807E1365002A2
:106BCD0018D8A4ECEF35F0EEEF35F0F3EF35F0011A
:106BDD000E3C6E010EF4EF35F0000E1200036E0345
:106BED00503BC001F0026A0126000E022202BE09CE
:106BFD00EF36F0025009E1240E015CD8A009EF3602
:106C0D00F00BEF36F00FEF36F0230E3B6E11EF3633
:106C1D00F003503B261200036E03503BC001F002FF
:106C2D006A015E000E025A02BE28EF36F0025007CE
:106C3D00E10F0E015CD8B026EF36F028EF36F02CC0
:106C4D00EF36F00F0E3B6E2EEF36F003503B5E121B
:106C5D0000036E020E036436EF36F038EF36F04E59
:106C6D00EF36F0080E03603EEF36F040EF36F04E93
:106C7D00EF36F003C001F0010E026E012A49EF3626
:106C8D00F0D8900236012E47EF36F002503F123FFA
:106C9D00C081FF1200036E020E036458EF36F05AE6
:106CAD00EF36F071EF36F0080E036060EF36F062EC
:106CBD00EF36F071EF36F003C001F0010E026E01F8
:106CCD002A6BEF36F0D8900236012E69EF36F002BE
:106CDD0050FF0A3F163FC081FF1200000E0C6E8759
:106CED00EF36F00C5008240A6E000E09200B6E0AC8
:106CFD00C0F6FF0BC0F7FF0800F55094EC35F00C13
:106D0D002A0C5008240A6E000E09200B6E0AC0F6DC
:106D1D00FF0BC0F7FF0800F5500009D8A499EF3616
:106D2D00F09BEF36F078EF36F01200000E0C6E018E
:106D3D000E0B6E0ABEADEF36F00A5006E10904D80F
:106D4D00B0ABEF36F0ADEF36F0AFEF36F0C2EF3659
:106D5D00F00BC001F00CC002F007C003F008C00436
:106D6D00F06CEC35F001C00BF002C00CF00906D848
:106D7D00A00A06A0EF36F00BC007F00CC008F01209
:106D8D000084928494000E026E140E016EF5EC36A2
:106D9D00F08482380E7FEC35F0000E026E050E0188
:106DAD006EF5EC36F0380E7FEC35F0000E026E010C
:106DBD000E016EF5EC36F0380E7FEC35F0080E7FD7
:106DCD00EC35F00F0E7FEC35F0010E7FEC35F03821
:106DDD000E7FEC35F0800E7FEC35F01200000E04C6
:106DED006E000E036E1BEF37F0000E056E280E05BC
:106DFD006403EF37F005EF37F007EF37F019EF3792
:106E0D00F0000E066E020E06640FEF37F011EF372D
:106E1D00F013EF37F016EF37F0062A09EF37F005CC
:106E2D002AFDEF36F0034A042A0150035C02500498
:106E3D0058D8A024EF37F026EF37F0FBEF36F012DD
:106E4D0000800E7FEC35F0980E086E7F0E096E7483
:106E5D00EC36F08A0E7FEC35F0D30E086E7F0E09FE
:106E6D006E74EC36F0C00E7FEC35F0250E086E7F9B
:106E7D000E096E74EC36F00F0E956E000E086E0056
:106E8D000E076EF6EC3BF0176E000E956E5EEF374B
:106E9D00F0010EDBEC3CF027EF37F0000EDBEC3CA5
:106EAD00F027EF37F0010E7FEC35F077EF37F01765
:106EBD0050156E166A1650000AD8B468EF37F027D1
:106ECD00EF37F01550010AD8B44FEF37F0030AD859
:106EDD00B454EF37F0010AD8B459EF37F027EF3734
:106EED00F01200010E7FEC35F0800E7FEC35F030A6
:106EFD000E086E7F0E096E74EC36F0C00E7FEC3509
:106F0D00F03B0E086E7F0E096E74EC36F0CB0E7FE3
:106F1D00EC35F0E70E086E7F0E096E74EC36F03B23
:106F2D005027EC38F00F0E956E000E086E0F0E0701
:106F3D006EF6EC3BF01E6E000E956EB5EF37F00160
:106F4D000EF5EC35F096EF37F0010E12EC36F096AB
:106F5D00EF37F0010E7FEC35F0CEEF37F01E501C01
:106F6D006E1D6A1D50000AD8B4BFEF37F096EF378B
:106F7D00F01C50010AD8B4A6EF37F0030AD8B4AB11
:106F8D00EF37F0010AD8B4B0EF37F096EF37F012C3
:106F9D0000000E126E0EBED8EF37F0D6EF37F0DED2
:106FAD00EF37F00D6C0E1ED8B00E2A010E126E10BA
:106FBD00BEE5EF37F0E3EF37F0E9EF37F00F6C1088
:106FCD001ED8B0102A0F501010D8B4F0EF37F0F2D1
:106FDD00EF37F016EF38F0010E116EFAEF37F0D8EB
:106FED00900F361036112A10AEFFEF37F001EF3843
:106FFD00F0F6EF37F00F500D5C10500E58D8A00A78
:10700D00EF38F00CEF38F010EF38F00F500D5E1038
:10701D00500E5AD89010320F32112E01EF38F01257
:10702D0050D8B41CEF38F01EEF38F022EF38F00DC9
:10703D006C0E1ED8B00E2A0DC00DF00EC00EF01243
:10704D00001B6E000E806E000E836E1BC013F014BD
:10705D006A000E166E0A0E156E87EC38F0D8901376
:10706D003614365B0E1324F66E7E0E1420F76E0862
:10707D0000F5CF83FF8084000E026E0F0E016EF5BA
:10708D00EC36F0000E806E000E836E1BC00DF00E00
:10709D006A000E106E0A0E0F6ECFEC37F0D8900D01
:1070AD00360E365B0E0D24F66E7E0E0E20F76E0834
:1070BD0000F5CF83FF8086000E026E0F0E016EF578
:1070CD00EC36F0000E806E000E836E630E836E80C4
:1070DD0088000E026E0F0E016EF5EC36F0000E807C
:1070ED006E000E836E390E836E808A000E026E0F57
:1070FD000E016EF5EC36F0000E806E000E836E12F2
:10710D0000000E186E16BE90EF38F08EEF38F09628
:10711D00EF38F0156C161ED8B0162A010E186E1425
:10712D00BE9DEF38F09BEF38F0A3EF38F0136C14E1
:10713D001ED8B0142A010E181A000E1A6E000E1960
:10714D006E15501610D8B4AEEF38F0B0EF38F0D849
:10715D00EF38F0010E176EB8EF38F0D890153616DF
:10716D0036172A16AEBDEF38F0BFEF38F0B4EF3852
:10717D00F0D89019361A361550135C16501458D88D
:10718D00A0CBEF38F0CDEF38F0D2EF38F01550132B
:10719D005E1650145A1980D89016321532172EBF1C
:1071AD00EF38F01850D8B4DEEF38F0E0EF38F0E4F7
:1071BD00EF38F0196C1A1ED8B01A2A19C013F01A2C
:1071CD00C014F01200060EC16E010E936E000E95E6
:1071DD006E000E966E000E926EC7EC36F0F80E93A2
:1071ED006E010E7FEC35F0800E7FEC35F0F30E085E
:1071FD006E7F0E096E74EC36F0890E7FEC35F0A8BB
:10720D000E086E7F0E096E74EC36F0C00E7FEC35F5
:10721D00F0F90E086E7F0E096E74EC36F0CA0E7F13
:10722D00EC35F0DA0E086E7F0E096E74EC36F00F49
:10723D000E956E000E086E000E076EF6EC3BF034E8
:10724D006E000E956E010E7FEC35F03EEF39F02796
:10725D00EC37F0F7EF38F01EEC3BF0F7EF38F0823B
:10726D00EC3AF0F7EF38F05DEC39F0F7EF38F03439
:10727D0050326E336A3350000AD8B448EF39F0F704
:10728D00EF38F03250010AD8B42EEF39F0030AD896
:10729D00B432EF39F0010AD8B436EF39F0070AD815
:1072AD00B43AEF39F0F7EF38F000EF00F0000E933D
:1072BD006E3FC081FF010E7FEC35F0840E7FEC3503
:1072CD00F0040E086E7F0E096E74EC36F0C20E7F60
:1072DD00EC35F0990E086E7E0E096E74EC36F000EA
:1072ED000E5EEC35F0070E026ED00E016EF5EC362B
:1072FD00F0010E7FEC35F0840E7FEC35F0040E08B6
:10730D006E7F0E096E74EC36F0C50E7FEC35F0878E
:10731D000E086E7F0E096E74EC36F067EC35F007D3
:10732D000E026ED00E016EF5EC36F0010E7FEC35CF
:10733D00F0840E7FEC35F0500E086E7F0E096E74E2
:10734D00EC36F0C20E7FEC35F0900E086E7F0E0914
:10735D006E74EC36F053EC35F0000EA9EC35F007F9
:10736D000E026ED00E016EF5EC36F0780E936E01B6
:10737D000E7FEC35F0840E7FEC35F0750E086E7FC8
:10738D000E096E74EC36F00F0E956E000E086E0041
:10739D000E076EF6EC3BF02A6E000E956E2A04D8A1
:1073AD00A4DBEF39F0DDEF39F0CAEF39F0352808FD
:1073BD00E13628D8B4E5EF39F0E7EF39F0EAEF39E7
:1073CD00F0010ECBEC3DF0010EA9EC35F0120000F2
:1073DD000E216E49EF3AF0000E806E000E836E2185
:1073ED00500408096E000ED8A0E82A00080A6E00A5
:1073FD000E086E0A0E076E9CEC36F007C00FF008F3
:10740D00C010F01BC00DF01CC00EF0CFEC37F00D0E
:10741D00C013F00EC014F021500308096E000ED8F1
:10742D00A0E82A00080A6E000E086E0A0E076E9C70
:10743D00EC36F007C015F008C016F087EC38F0D820
:10744D0090133614365B0E1324F66E7E0E1420F751
:10745D006E0800F5CF83FF21C01EF0020E1E26011F
:10746D000E1F6E1E2A3DEF3AF0D8901F361E2E3B92
:10747D00EF3AF01F508012000E026E0F0E016EF5E6
:10748D00EC36F0212A1D50215CD8A050EF3AF05275
:10749D00EF3AF0F2EF39F021C020F0030E20645ADC
:1074AD00EF3AF05CEF3AF05EEF3AF07DEF3AF00034
:1074BD000E806E000E836E400E836E20C01EF00295
:1074CD000E1E26010E1F6E1E2A6FEF3AF0D8901F6A
:1074DD00361E2E6DEF3AF01F508012000E026E0F09
:1074ED000E016EF5EC36F0202A54EF3AF0000E80C6
:1074FD006E000E836E12003E50D8A488EF3AF08ACB
:10750D00EF3AF0CBEF3AF0800E7FEC35F0F90E0844
:10751D006E7E0E096E74EC36F0C00E7FEC35F07E8B
:10752D000E086E7F0E096E74EC36F00F0E956E0020
:10753D000E086E000E076EF6EC3BF0216E000E95F8
:10754D006EB6EF3AF0010E5EEC35F0010E7FEC35C4
:10755D00F082EF3AF0010E7FEC35F01DEF3BF0219C
:10756D00501F6E206A2050000AD8B4C0EF3AF08246
:10757D00EF3AF01F50010AD8B4A9EF3AF0030AD838
:10758D00B4B1EF3AF082EF3AF0800E7FEC35F0E0D7
:10759D000E086E7E0E096E74EC36F0C00E7FEC3563
:1075AD00F01A0E086E7F0E096E74EC36F0CA0E7F5F
:1075BD00EC35F0D30E086E7F0E096E74EC36F00FBD
:1075CD000E956E000E086E000E076EF6EC3BF02168
:1075DD006E000E956E04EF3BF078EC37F082EF3ACB
:1075ED00F0000E5EEC35F0010E7FEC35F082EF3AD7
:1075FD00F0010E7FEC35F01DEF3BF021501F6E209A
:10760D006A2050000AD8B40EEF3BF082EF3AF01F1B
:10761D0050010AD8B4F3EF3AF0030AD8B4F7EF3AB1
:10762D00F0010AD8B4FFEF3AF082EF3AF012000100
:10763D000E7FEC35F0800E7FEC35F03D50D8B42A3E
:10764D00EF3BF02CEF3BF034EF3BF06C0E086E7F10
:10765D000E096E74EC36F03AEF3BF0A00E086E7F1B
:10766D000E096E74EC36F08A0E7FEC35F0D30E08F1
:10767D006E7F0E096E74EC36F0C00E7FEC35F03C6B
:10768D0050D8B44CEF3BF04EEF3BF056EF3BF0C50E
:10769D000E086E7F0E096E74EC36F05CEF3BF063F6
:1076AD000E086E7F0E096E74EC36F0CA0E7FEC3547
:1076BD00F0BE0E086E7F0E096E74EC36F00F0E954F
:1076CD006E000E086E000E076EF6EC3BF02C6E0091
:1076DD000E956ED8EF3BF03D50D8B478EF3BF07A75
:1076ED00EF3BF09AEF3BF0000EA9EC35F0010E7F69
:1076FD00EC35F0810E7FEC35F0B80E086E7E0E097C
:10770D006E74EC36F0C00E7FEC35F0ED0E086E7E2B
:10771D000E096E74EC36F0050E026EDC0E016EF580
:10772D00EC36F01EEF3BF0010ECBEC3DF01EEF3BC7
:10773D00F03C50D8B4A5EF3BF0A7EF3BF0C9EF3BC1
:10774D00F053EC35F0010E7FEC35F0810E7FEC350A
:10775D00F0A90E086E7E0E096E74EC36F0C10E7F28
:10776D00EC35F0ED0E086E7E0E096E74EC36F005FC
:10777D000E026EDC0E016EF5EC36F0000EA9EC3546
:10778D00F01EEF3BF0020ECBEC3DF01EEF3BF00197
:10779D000E7FEC35F0F5EF3BF0040ECBEC3DF01E1B
:1077AD00EF3BF02C502A6E2B6A2B50000AD8B4E216
:1077BD00EF3BF01EEF3BF02A50010AD8B472EF3BBD
:1077CD00F0030AD8B49FEF3BF0010AD8B4CEEF3BDB
:1077DD00F0070AD8B4D3EF3BF01EEF3BF0120000D8
:1077ED000E0A6E000E096E000E0C6E81CF0BF0A707
:1077FD00EF3CF0000E0D6E830E0D24F66EF76A7ED3
:10780D000EF7220800F550FF0A811283B611EF3CE6
:10781D00F013EF3CF02BEF3CF0000E026E0F0E015B
:10782D006EF5EC36F083B61EEF3CF020EF3CF02BFE
:10783D00EF3CF083A625EF3CF027EF3CF020EF3C2A
:10784D00F00D280C6E9DEF3CF083B430EF3CF03220
:10785D00EF3CF04BEF3CF0000E026E0F0E016EF59B
:10786D00EC36F083B43DEF3CF03FEF3CF04BEF3C9A
:10787D00F083A444EF3CF046EF3CF03FEF3CF00DBD
:10788D0050040F0C6E9DEF3CF083B250EF3CF05264
:10789D00EF3CF06BEF3CF0000E026E0F0E016EF53B
:1078AD00EC36F083B25DEF3CF05FEF3CF06BEF3CFC
:1078BD00F083A264EF3CF066EF3CF05FEF3CF00D1F
:1078CD0050070F0C6E9DEF3CF083B070EF3CF072E3
:1078DD00EF3CF08BEF3CF0000E026E0F0E016EF5DB
:1078ED00EC36F083B07DEF3CF07FEF3CF08BEF3C5E
:1078FD00F083A084EF3CF086EF3CF07FEF3CF00D81
:10790D00500A0F0C6E9DEF3CF0830E0D24F66EF7B2
:10791D006A7E0EF7220800F55081160D2A020E0D13
:10792D00649BEF3CF09DEF3CF002EF3CF0000E024B
:10793D006E050E016EF5EC36F0050E0926000E0AE9
:10794D00220750095C08500A58D8A0B0EF3CF0B29D
:10795D00EF3CF0BBEF3CF007500810D8A4B9EF3C5A
:10796D00F0BBEF3CF0C3EF3CF00C50D8B4C1EF3C92
:10797D00F0C3EF3CF000EF3CF00C50D8A4C9EF3C45
:10798D00F0CBEF3CF0CCEF3CF00C680B0E0C18D8A4
:10799D00A4D3EF3CF0D5EF3CF0D7EF3CF0000E0C4C
:1079AD006E0BC081FF0C501200126E010E7FEC3574
:1079BD00F0800E7FEC35F01250D8B4E8EF3CF0EAD1
:1079CD00EF3CF0F2EF3CF09A0E086E7F0E096E74EC
:1079DD00EC36F0F8EF3CF01C0E086E7F0E096E745D
:1079ED00EC36F08B0E7FEC35F0E10E086E7F0E0954
:1079FD006E74EC36F0C00E7FEC35F0CC0E086E7F59
:107A0D000E096E74EC36F0CB0E7FEC35F0030E13D1
:107A1D006E13C00EF0010E0F6E0E2A18EF3DF0D84A
:107A2D00900F360E2E16EF3DF00F503F140009D873
:107A3D00A423EF3DF025EF3DF02BEF3DF0000E11AF
:107A4D006E4F0E106E2FEF3DF0000E116E490E10A1
:107A5D006E105094EC35F0132A070E136439EF3D78
:107A6D00F03BEF3DF00FEF3DF00F0E956E000E0861
:107A7D006E000E076EF6EC3BF0146E000E956EB9AF
:107A8D00EF3DF0010E7FEC35F0CAEF3DF01250D80E
:107A9D00B453EF3DF055EF3DF087EF3DF0000E9301
:107AAD006E3FC081FF010E7FEC35F0850E7FEC350A
:107ABD00F0070E086E7F0E096E74EC36F0C40E7F63
:107ACD00EC35F0B00E086E7F0E096E74EC36F014C6
:107ADD005094EC35F0030E026EE80E016EF5EC36A7
:107AED00F014502FEC36F0030E026EE80E016EF519
:107AFD00EC36F0010E7FEC35F0780E936EDFEF3C37
:107B0D00F0000E936E3FC081FF010E7FEC35F084C7
:107B1D000E7FEC35F00F0E086E7F0E096E74EC368D
:107B2D00F0C40E7FEC35F0B00E086E7F0E096E744A
:107B3D00EC36F0145094EC35F0030E026EE80E01A5
:107B4D006EF5EC36F0145051EC36F0030E026EE883
:107B5D000E016EF5EC36F0010E7FEC35F0780E93DC
:107B6D006EDFEF3CF014500E6E0F6A0F50000AD806
:107B7D00B4C3EF3DF04DEF3DF00E50010AD8B448BF
:107B8D00EF3DF04DEF3DF01200276E010E7FEC350D
:107B9D00F0000E266E030E246E352808E13628D827
:107BAD00B4DBEF3DF0DDEF3DF0F1EF3DF0850E7F05
:107BBD00EC35F0B70E086E7F0E096E74EC36F0C51D
:107BCD000E7FEC35F0CB0E086E7E0E096E74EC3622
:107BDD00F048EF3EF0040E2718D8A4F8EF3DF0FA68
:107BED00EF3DF00EEF3EF0850E7FEC35F0B70E0851
:107BFD006E7F0E096E74EC36F0C20E7FEC35F0C65A
:107C0D000E086E7E0E096E74EC36F048EF3EF027CE
:107C1D0004D8A414EF3EF016EF3EF029EF3EF081AC
:107C2D000E7FEC35F0D30E086E7E0E096E74EC36B9
:107C3D00F0FF0E026E0168DAEC35F0010EA9EC359D
:107C4D00F037EF3EF0800E7FEC35F0870E086E7E3C
:107C5D000E096E74EC36F0FF0E026E0168DAEC352B
:107C6D00F0C20E7FEC35F0ED0E086E7E0E096E74CF
:107C7D00EC36F0050E026EDC0E016EF5EC36F02CD6
:107C8D00EF3FF0000E296E000E286E28C01BF02964
:107C9D00C01CF026C01DF0EEEC39F00F0E956E00F5
:107CAD000E086E0F0E076EF6EC3BF0256E000E956E
:107CBD006E2528D8B465EF3EF067EF3EF04CEF3EF1
:107CCD00F0262A26500408096E000ED8A0E82A00D6
:107CDD00080A6E000E086E0A0E076E9CEC36F00751
:107CED00C022F008C023F025C001F0026A22C003B3
:107CFD00F023C004F06CEC35F00150282602502919
:107D0D0022040E2618D8A48EEF3EF090EF3EF04CD4
:107D1D00EF3EF0040E2718D8B497EF3EF099EF3EE2
:107D2D00F00BEF3FF028C001F029C002F0DAEC357E
:107D3D00F00009D8B4A5EF3EF0A7EF3EF0CBEF3E33
:107D4D00F0010E7FEC35F02704D8A4B0EF3EF0B271
:107D5D00EF3EF0C0EF3EF0810E7FEC35F0D30E0814
:107D6D006E7E0E096E74EC36F0010EA9EC35F02C1A
:107D7D00EF3FF0800E7FEC35F0870E086E7E0E091A
:107D8D006E74EC36F02CEF3FF0000E266E000E29CF
:107D9D006E000E286E850E7FEC35F0ED0E086E7FB1
:107DAD000E096E74EC36F0C50E7FEC35F0460E08FC
:107DBD006E7F0E096E74EC36F02406050E026EDC35
:107DCD000E016EF5EC36F0010E7FEC35F02450D837
:107DDD00A4F3EF3EF0F5EF3EF0F7EF3EF02CEF3F62
:107DED00F0850E7FEC35F0B70E086E7F0E096E74C0
:107DFD00EC36F0C50E7FEC35F0CB0E086E7E0E091D
:107E0D006E74EC36F04CEF3EF028C001F029C00244
:107E1D00F062EC35F0010E7FEC35F0820E7FEC3523
:107E2D00F0C80E086E7E0E096E74EC36F0C50E7F2E
:107E3D00EC35F05A0E086E7F0E096E74EC36F007B5
:107E4D000E026ED00E016EF5EC36F01200003F0002
:107E5D0006005B004F0066006D007D0007007F008F
:107E6D0067003F0006005B004F0066006D007D005F
:107E7D0007007F00670001020400506F72746120DB
:107E8D006465737472616E63616461004172204355
:107E9D006F6E646963696F6E61646F00506F7274A9
:107EAD0061205472616E6361646100506F72746120
:107EBD0020466563686164610061206E6F766120A4
:107ECD0073656E686100506F7274612041626572F6
:107EDD00746100312D4D756461722054656D7000B3
:107EED00636F6D207375636573736F00312D6C69EE
:107EFD00676172204143004465736C6967616E640C
:107F0D006F006465736C6967616E646F00322D4438
:107F1D0065736C6967617200322D6465736C696796
:107F2D00617200312D41756D656E74617200322D77
:107F3D0044696D696E75697200496E636F72726521
:107F4D007461005472616E63616E646F0064656686
:107F5D00696E69646100322D556E4C6F636B003133
:107F6D002D46656368617200312D656E74726172A4
:107F7D0000322D766F6C746172004173206C757ACE
:107F8D006573006120706F72746100312D6C6967CB
:107F9D00617200312D416272697200322D506F7223
:107FAD0074610061206C757A2000496E736972618D
:107FBD0000342D7073776400322D4C6F636B00317C
:107FCD002D7361697200332D7361697200342D5305
:107FDD0061697200333435363700332D45585400FE
:107FED0053656E686100312D4C757A00332D414318
:027FFD00000082
:020000040020DA
:08000000FFFFFFFFFFFFFFFF00
:020000040030CA
:0E000000FF021F00FF8381FF0FC00FE00F40C3
:00000001FF
